{
  "_format": "hh-sol-artifact-1",
  "contractName": "SmartContractAttacker2",
  "sourceName": "contracts/SmartContractAttacker2.sol",
  "abi": [
    {
      "inputs": [],
      "stateMutability": "payable",
      "type": "constructor"
    },
    {
      "anonymous": false,
      "inputs": [
        {
          "indexed": false,
          "internalType": "uint256",
          "name": "amount",
          "type": "uint256"
        },
        {
          "indexed": false,
          "internalType": "uint256",
          "name": "when",
          "type": "uint256"
        }
      ],
      "name": "Withdrawal",
      "type": "event"
    },
    {
      "inputs": [],
      "name": "SCWAddress",
      "outputs": [
        {
          "internalType": "address",
          "name": "",
          "type": "address"
        }
      ],
      "stateMutability": "view",
      "type": "function"
    },
    {
      "inputs": [],
      "name": "accountbalance",
      "outputs": [
        {
          "internalType": "uint256",
          "name": "",
          "type": "uint256"
        }
      ],
      "stateMutability": "view",
      "type": "function"
    },
    {
      "inputs": [],
      "name": "deposit",
      "outputs": [],
      "stateMutability": "payable",
      "type": "function"
    },
    {
      "inputs": [
        {
          "internalType": "uint256",
          "name": "_amount",
          "type": "uint256"
        }
      ],
      "name": "deposit2",
      "outputs": [],
      "stateMutability": "payable",
      "type": "function"
    },
    {
      "inputs": [],
      "name": "geContracttBalance2",
      "outputs": [
        {
          "internalType": "uint256",
          "name": "",
          "type": "uint256"
        }
      ],
      "stateMutability": "view",
      "type": "function"
    },
    {
      "inputs": [],
      "name": "getContractBalance",
      "outputs": [
        {
          "internalType": "uint256",
          "name": "",
          "type": "uint256"
        }
      ],
      "stateMutability": "view",
      "type": "function"
    },
    {
      "inputs": [],
      "name": "hackWinner",
      "outputs": [],
      "stateMutability": "nonpayable",
      "type": "function"
    },
    {
      "inputs": [],
      "name": "owner",
      "outputs": [
        {
          "internalType": "address payable",
          "name": "",
          "type": "address"
        }
      ],
      "stateMutability": "view",
      "type": "function"
    },
    {
      "inputs": [],
      "name": "ownerWithdraw",
      "outputs": [],
      "stateMutability": "payable",
      "type": "function"
    },
    {
      "stateMutability": "payable",
      "type": "receive"
    }
  ],
  "bytecode": "0x608060405273cf469d3beb3fc24cee979eff83be33ed50988502600160006101000a81548173ffffffffffffffffffffffffffffffffffffffff021916908373ffffffffffffffffffffffffffffffffffffffff160217905550336000806101000a81548173ffffffffffffffffffffffffffffffffffffffff021916908373ffffffffffffffffffffffffffffffffffffffff16021790555034600260008282546100ab91906100b7565b92505081905550610146565b60006100c28261010d565b91506100cd8361010d565b9250827fffffffffffffffffffffffffffffffffffffffffffffffffffffffffffffffff0382111561010257610101610117565b5b828201905092915050565b6000819050919050565b7f4e487b7100000000000000000000000000000000000000000000000000000000600052601160045260246000fd5b61091a806101556000396000f3fe60806040526004361061008a5760003560e01c80636f9fb98a116100595780636f9fb98a1461011757806372c273a5146101425780638da5cb5b1461016d578063a266bced14610198578063d0e30db0146101c3576100aa565b806318fee03a146100af578063222f6182146100da57806324237de2146100f65780634311de8f1461010d576100aa565b366100aa5734600260008282546100a19190610767565b92505081905550005b600080fd5b3480156100bb57600080fd5b506100c46101cd565b6040516100d191906106fc565b60405180910390f35b6100f460048036038101906100ef91906105ad565b6101d7565b005b34801561010257600080fd5b5061010b6101ff565b005b6101156103ab565b005b34801561012357600080fd5b5061012c610525565b60405161013991906106fc565b60405180910390f35b34801561014e57600080fd5b5061015761052d565b60405161016491906106fc565b60405180910390f35b34801561017957600080fd5b50610182610533565b60405161018f91906106c1565b60405180910390f35b3480156101a457600080fd5b506101ad610557565b6040516101ba91906106a6565b60405180910390f35b6101cb61057d565b005b6000600254905090565b8034146101e357600080fd5b80600260008282546101f59190610767565b9250508190555050565b3373ffffffffffffffffffffffffffffffffffffffff1660008054906101000a900473ffffffffffffffffffffffffffffffffffffffff1673ffffffffffffffffffffffffffffffffffffffff161461028d576040517f08c379a0000000000000000000000000000000000000000000000000000000008152600401610284906106dc565b60405180910390fd5b6000600160009054906101000a900473ffffffffffffffffffffffffffffffffffffffff1673ffffffffffffffffffffffffffffffffffffffff166040516024016040516020818303038152906040527f732b7a8d000000000000000000000000000000000000000000000000000000007bffffffffffffffffffffffffffffffffffffffffffffffffffffffff19166020820180517bffffffffffffffffffffffffffffffffffffffffffffffffffffffff8381831617835250505050604051610358919061067a565b6000604051808303816000865af19150503d8060008114610395576040519150601f19603f3d011682016040523d82523d6000602084013e61039a565b606091505b50509050806103a857600080fd5b50565b3373ffffffffffffffffffffffffffffffffffffffff1660008054906101000a900473ffffffffffffffffffffffffffffffffffffffff1673ffffffffffffffffffffffffffffffffffffffff1614610439576040517f08c379a0000000000000000000000000000000000000000000000000000000008152600401610430906106dc565b60405180910390fd5b346002600082825461044b91906107bd565b9250508190555060008060009054906101000a900473ffffffffffffffffffffffffffffffffffffffff1673ffffffffffffffffffffffffffffffffffffffff164760405161049990610691565b60006040518083038185875af1925050503d80600081146104d6576040519150601f19603f3d011682016040523d82523d6000602084013e6104db565b606091505b50509050806104e957600080fd5b7fbf2ed60bd5b5965d685680c01195c9514e4382e28e3a5a2d2d5244bf59411b93474260405161051a929190610717565b60405180910390a150565b600047905090565b60025481565b60008054906101000a900473ffffffffffffffffffffffffffffffffffffffff1681565b600160009054906101000a900473ffffffffffffffffffffffffffffffffffffffff1681565b346002600082825461058f9190610767565b92505081905550565b6000813590506105a7816108cd565b92915050565b6000602082840312156105bf57600080fd5b60006105cd84828501610598565b91505092915050565b6105df81610803565b82525050565b6105ee816107f1565b82525050565b60006105ff82610740565b610609818561074b565b935061061981856020860161083f565b80840191505092915050565b6000610632602083610756565b915061063d826108a1565b602082019050919050565b600061065560008361074b565b9150610660826108ca565b600082019050919050565b61067481610835565b82525050565b600061068682846105f4565b915081905092915050565b600061069c82610648565b9150819050919050565b60006020820190506106bb60008301846105e5565b92915050565b60006020820190506106d660008301846105d6565b92915050565b600060208201905081810360008301526106f581610625565b9050919050565b6000602082019050610711600083018461066b565b92915050565b600060408201905061072c600083018561066b565b610739602083018461066b565b9392505050565b600081519050919050565b600081905092915050565b600082825260208201905092915050565b600061077282610835565b915061077d83610835565b9250827fffffffffffffffffffffffffffffffffffffffffffffffffffffffffffffffff038211156107b2576107b1610872565b5b828201905092915050565b60006107c882610835565b91506107d383610835565b9250828210156107e6576107e5610872565b5b828203905092915050565b60006107fc82610815565b9050919050565b600061080e82610815565b9050919050565b600073ffffffffffffffffffffffffffffffffffffffff82169050919050565b6000819050919050565b60005b8381101561085d578082015181840152602081019050610842565b8381111561086c576000848401525b50505050565b7f4e487b7100000000000000000000000000000000000000000000000000000000600052601160045260246000fd5b7f4f6e6c79206f776e65722063616e20616c6c20746869732066756e6374696f6e600082015250565b50565b6108d681610835565b81146108e157600080fd5b5056fea264697066735822122060655d9e2e507f353f281da8d1ebf916f3e61af72a514a9143aeeb8da7bba16e64736f6c63430008040033",
  "linkReferences": {},
  "deployedLinkReferences": {}
}